{
  "_format": "hh-sol-artifact-1",
  "contractName": "WChickToken",
  "sourceName": "contracts/WChickToken.sol",
  "abi": [
    {
      "inputs": [
        {
          "internalType": "string",
          "name": "name",
          "type": "string"
        },
        {
          "internalType": "string",
          "name": "symbol",
          "type": "string"
        },
        {
          "internalType": "uint256",
          "name": "initialBalance",
          "type": "uint256"
        }
      ],
      "stateMutability": "nonpayable",
      "type": "constructor"
    },
    {
      "anonymous": false,
      "inputs": [
        {
          "indexed": true,
          "internalType": "address",
          "name": "owner",
          "type": "address"
        },
        {
          "indexed": true,
          "internalType": "address",
          "name": "spender",
          "type": "address"
        },
        {
          "indexed": false,
          "internalType": "uint256",
          "name": "value",
          "type": "uint256"
        }
      ],
      "name": "Approval",
      "type": "event"
    },
    {
      "anonymous": false,
      "inputs": [],
      "name": "MintFinished",
      "type": "event"
    },
    {
      "anonymous": false,
      "inputs": [
        {
          "indexed": true,
          "internalType": "address",
          "name": "previousOwner",
          "type": "address"
        },
        {
          "indexed": true,
          "internalType": "address",
          "name": "newOwner",
          "type": "address"
        }
      ],
      "name": "OwnershipTransferred",
      "type": "event"
    },
    {
      "anonymous": false,
      "inputs": [
        {
          "indexed": true,
          "internalType": "address",
          "name": "from",
          "type": "address"
        },
        {
          "indexed": true,
          "internalType": "address",
          "name": "to",
          "type": "address"
        },
        {
          "indexed": false,
          "internalType": "uint256",
          "name": "value",
          "type": "uint256"
        }
      ],
      "name": "Transfer",
      "type": "event"
    },
    {
      "inputs": [
        {
          "internalType": "address",
          "name": "owner",
          "type": "address"
        },
        {
          "internalType": "address",
          "name": "spender",
          "type": "address"
        }
      ],
      "name": "allowance",
      "outputs": [
        {
          "internalType": "uint256",
          "name": "",
          "type": "uint256"
        }
      ],
      "stateMutability": "view",
      "type": "function"
    },
    {
      "inputs": [
        {
          "internalType": "address",
          "name": "spender",
          "type": "address"
        },
        {
          "internalType": "uint256",
          "name": "amount",
          "type": "uint256"
        }
      ],
      "name": "approve",
      "outputs": [
        {
          "internalType": "bool",
          "name": "",
          "type": "bool"
        }
      ],
      "stateMutability": "nonpayable",
      "type": "function"
    },
    {
      "inputs": [
        {
          "internalType": "address",
          "name": "account",
          "type": "address"
        }
      ],
      "name": "balanceOf",
      "outputs": [
        {
          "internalType": "uint256",
          "name": "",
          "type": "uint256"
        }
      ],
      "stateMutability": "view",
      "type": "function"
    },
    {
      "inputs": [
        {
          "internalType": "uint256",
          "name": "amount",
          "type": "uint256"
        }
      ],
      "name": "burn",
      "outputs": [],
      "stateMutability": "nonpayable",
      "type": "function"
    },
    {
      "inputs": [
        {
          "internalType": "address",
          "name": "account",
          "type": "address"
        },
        {
          "internalType": "uint256",
          "name": "amount",
          "type": "uint256"
        }
      ],
      "name": "burnFrom",
      "outputs": [],
      "stateMutability": "nonpayable",
      "type": "function"
    },
    {
      "inputs": [],
      "name": "decimals",
      "outputs": [
        {
          "internalType": "uint8",
          "name": "",
          "type": "uint8"
        }
      ],
      "stateMutability": "pure",
      "type": "function"
    },
    {
      "inputs": [
        {
          "internalType": "address",
          "name": "spender",
          "type": "address"
        },
        {
          "internalType": "uint256",
          "name": "subtractedValue",
          "type": "uint256"
        }
      ],
      "name": "decreaseAllowance",
      "outputs": [
        {
          "internalType": "bool",
          "name": "",
          "type": "bool"
        }
      ],
      "stateMutability": "nonpayable",
      "type": "function"
    },
    {
      "inputs": [],
      "name": "finishMinting",
      "outputs": [],
      "stateMutability": "nonpayable",
      "type": "function"
    },
    {
      "inputs": [
        {
          "internalType": "address",
          "name": "spender",
          "type": "address"
        },
        {
          "internalType": "uint256",
          "name": "addedValue",
          "type": "uint256"
        }
      ],
      "name": "increaseAllowance",
      "outputs": [
        {
          "internalType": "bool",
          "name": "",
          "type": "bool"
        }
      ],
      "stateMutability": "nonpayable",
      "type": "function"
    },
    {
      "inputs": [
        {
          "internalType": "address",
          "name": "recipient",
          "type": "address"
        },
        {
          "internalType": "uint256",
          "name": "amount",
          "type": "uint256"
        },
        {
          "internalType": "uint8",
          "name": "targetChainId",
          "type": "uint8"
        },
        {
          "internalType": "uint256",
          "name": "targetAddress",
          "type": "uint256"
        }
      ],
      "name": "migrate",
      "outputs": [
        {
          "internalType": "bool",
          "name": "",
          "type": "bool"
        }
      ],
      "stateMutability": "nonpayable",
      "type": "function"
    },
    {
      "inputs": [
        {
          "internalType": "address",
          "name": "account",
          "type": "address"
        },
        {
          "internalType": "uint256",
          "name": "amount",
          "type": "uint256"
        }
      ],
      "name": "mint",
      "outputs": [],
      "stateMutability": "nonpayable",
      "type": "function"
    },
    {
      "inputs": [],
      "name": "mintingFinished",
      "outputs": [
        {
          "internalType": "bool",
          "name": "",
          "type": "bool"
        }
      ],
      "stateMutability": "view",
      "type": "function"
    },
    {
      "inputs": [],
      "name": "name",
      "outputs": [
        {
          "internalType": "string",
          "name": "",
          "type": "string"
        }
      ],
      "stateMutability": "view",
      "type": "function"
    },
    {
      "inputs": [],
      "name": "owner",
      "outputs": [
        {
          "internalType": "address",
          "name": "",
          "type": "address"
        }
      ],
      "stateMutability": "view",
      "type": "function"
    },
    {
      "inputs": [],
      "name": "renounceOwnership",
      "outputs": [],
      "stateMutability": "nonpayable",
      "type": "function"
    },
    {
      "inputs": [],
      "name": "symbol",
      "outputs": [
        {
          "internalType": "string",
          "name": "",
          "type": "string"
        }
      ],
      "stateMutability": "view",
      "type": "function"
    },
    {
      "inputs": [],
      "name": "totalSupply",
      "outputs": [
        {
          "internalType": "uint256",
          "name": "",
          "type": "uint256"
        }
      ],
      "stateMutability": "view",
      "type": "function"
    },
    {
      "inputs": [
        {
          "internalType": "address",
          "name": "recipient",
          "type": "address"
        },
        {
          "internalType": "uint256",
          "name": "amount",
          "type": "uint256"
        }
      ],
      "name": "transfer",
      "outputs": [
        {
          "internalType": "bool",
          "name": "",
          "type": "bool"
        }
      ],
      "stateMutability": "nonpayable",
      "type": "function"
    },
    {
      "inputs": [
        {
          "internalType": "address",
          "name": "sender",
          "type": "address"
        },
        {
          "internalType": "address",
          "name": "recipient",
          "type": "address"
        },
        {
          "internalType": "uint256",
          "name": "amount",
          "type": "uint256"
        }
      ],
      "name": "transferFrom",
      "outputs": [
        {
          "internalType": "bool",
          "name": "",
          "type": "bool"
        }
      ],
      "stateMutability": "nonpayable",
      "type": "function"
    },
    {
      "inputs": [
        {
          "internalType": "address",
          "name": "newOwner",
          "type": "address"
        }
      ],
      "name": "transferOwnership",
      "outputs": [],
      "stateMutability": "nonpayable",
      "type": "function"
    }
  ],
  "bytecode": "0x60806040526000600560006101000a81548160ff0219169083151502179055503480156200002c57600080fd5b5060405162002e7538038062002e7583398181016040528101906200005291906200059a565b828281600390805190602001906200006c92919062000461565b5080600490805190602001906200008592919062000461565b505050620000a86200009c6200013360201b60201c565b6200013b60201b60201c565b60008111620000ee576040517f08c379a0000000000000000000000000000000000000000000000000000000008152600401620000e590620006a8565b60405180910390fd5b6200012a33620001036200020160201b60201c565b600a62000111919062000853565b836200011e919062000990565b6200020a60201b60201c565b50505062000bea565b600033905090565b6000600560019054906101000a900473ffffffffffffffffffffffffffffffffffffffff16905081600560016101000a81548173ffffffffffffffffffffffffffffffffffffffff021916908373ffffffffffffffffffffffffffffffffffffffff1602179055508173ffffffffffffffffffffffffffffffffffffffff168173ffffffffffffffffffffffffffffffffffffffff167f8be0079c531659141344cd1fd0a4f28419497f9722a3daafe3b4186f6b6457e060405160405180910390a35050565b60006009905090565b6200021a6200013360201b60201c565b73ffffffffffffffffffffffffffffffffffffffff1662000240620002b460201b60201c565b73ffffffffffffffffffffffffffffffffffffffff161462000299576040517f08c379a00000000000000000000000000000000000000000000000000000000081526004016200029090620006ca565b60405180910390fd5b620002b08282620002de60201b62000c291760201c565b5050565b6000600560019054906101000a900473ffffffffffffffffffffffffffffffffffffffff16905090565b600073ffffffffffffffffffffffffffffffffffffffff168273ffffffffffffffffffffffffffffffffffffffff16141562000351576040517f08c379a00000000000000000000000000000000000000000000000000000000081526004016200034890620006ec565b60405180910390fd5b62000365600083836200045760201b60201c565b80600260008282546200037991906200079b565b92505081905550806000808473ffffffffffffffffffffffffffffffffffffffff1673ffffffffffffffffffffffffffffffffffffffff1681526020019081526020016000206000828254620003d091906200079b565b925050819055508173ffffffffffffffffffffffffffffffffffffffff16600073ffffffffffffffffffffffffffffffffffffffff167fddf252ad1be2c89b69c2b068fc378daa952ba7f163c4a11628f55a4df523b3ef836040516200043791906200070e565b60405180910390a362000453600083836200045c60201b60201c565b5050565b505050565b505050565b8280546200046f9062000a3e565b90600052602060002090601f016020900481019282620004935760008555620004df565b82601f10620004ae57805160ff1916838001178555620004df565b82800160010185558215620004df579182015b82811115620004de578251825591602001919060010190620004c1565b5b509050620004ee9190620004f2565b5090565b5b808211156200050d576000816000905550600101620004f3565b5090565b600062000528620005228462000754565b6200072b565b9050828152602081018484840111156200054157600080fd5b6200054e84828562000a08565b509392505050565b600082601f8301126200056857600080fd5b81516200057a84826020860162000511565b91505092915050565b600081519050620005948162000bd0565b92915050565b600080600060608486031215620005b057600080fd5b600084015167ffffffffffffffff811115620005cb57600080fd5b620005d98682870162000556565b935050602084015167ffffffffffffffff811115620005f757600080fd5b620006058682870162000556565b9250506040620006188682870162000583565b9150509250925092565b600062000631601d836200078a565b91506200063e8262000b55565b602082019050919050565b6000620006586020836200078a565b9150620006658262000b7e565b602082019050919050565b60006200067f601f836200078a565b91506200068c8262000ba7565b602082019050919050565b620006a281620009f1565b82525050565b60006020820190508181036000830152620006c38162000622565b9050919050565b60006020820190508181036000830152620006e58162000649565b9050919050565b60006020820190508181036000830152620007078162000670565b9050919050565b600060208201905062000725600083018462000697565b92915050565b6000620007376200074a565b905062000745828262000a74565b919050565b6000604051905090565b600067ffffffffffffffff82111562000772576200077162000b08565b5b6200077d8262000b37565b9050602081019050919050565b600082825260208201905092915050565b6000620007a882620009f1565b9150620007b583620009f1565b9250827fffffffffffffffffffffffffffffffffffffffffffffffffffffffffffffffff03821115620007ed57620007ec62000aaa565b5b828201905092915050565b6000808291508390505b60018511156200084a5780860481111562000822576200082162000aaa565b5b6001851615620008325780820291505b8081029050620008428562000b48565b945062000802565b94509492505050565b60006200086082620009f1565b91506200086d83620009fb565b92506200089c7fffffffffffffffffffffffffffffffffffffffffffffffffffffffffffffffff8484620008a4565b905092915050565b600082620008b6576001905062000989565b81620008c6576000905062000989565b8160018114620008df5760028114620008ea5762000920565b600191505062000989565b60ff841115620008ff57620008fe62000aaa565b5b8360020a91508482111562000919576200091862000aaa565b5b5062000989565b5060208310610133831016604e8410600b84101617156200095a5782820a90508381111562000954576200095362000aaa565b5b62000989565b620009698484846001620007f8565b9250905081840481111562000983576200098262000aaa565b5b81810290505b9392505050565b60006200099d82620009f1565b9150620009aa83620009f1565b9250817fffffffffffffffffffffffffffffffffffffffffffffffffffffffffffffffff0483118215151615620009e657620009e562000aaa565b5b828202905092915050565b6000819050919050565b600060ff82169050919050565b60005b8381101562000a2857808201518184015260208101905062000a0b565b8381111562000a38576000848401525b50505050565b6000600282049050600182168062000a5757607f821691505b6020821081141562000a6e5762000a6d62000ad9565b5b50919050565b62000a7f8262000b37565b810181811067ffffffffffffffff8211171562000aa15762000aa062000b08565b5b80604052505050565b7f4e487b7100000000000000000000000000000000000000000000000000000000600052601160045260246000fd5b7f4e487b7100000000000000000000000000000000000000000000000000000000600052602260045260246000fd5b7f4e487b7100000000000000000000000000000000000000000000000000000000600052604160045260246000fd5b6000601f19601f8301169050919050565b60008160011c9050919050565b7f77436869636b3a20537570706c792063616e6e6f74206265207a65726f000000600082015250565b7f4f776e61626c653a2063616c6c6572206973206e6f7420746865206f776e6572600082015250565b7f45524332303a206d696e7420746f20746865207a65726f206164647265737300600082015250565b62000bdb81620009f1565b811462000be757600080fd5b50565b61227b8062000bfa6000396000f3fe608060405234801561001057600080fd5b506004361061012c5760003560e01c8063715018a6116100ad578063a457c2d711610071578063a457c2d71461030d578063a9059cbb1461033d578063dd62ed3e1461036d578063f2fde38b1461039d578063fb19bee1146103b95761012c565b8063715018a6146102a157806379cc6790146102ab5780637d64bcb4146102c75780638da5cb5b146102d157806395d89b41146102ef5761012c565b8063313ce567116100f4578063313ce567146101eb578063395093511461020957806340c10f191461023957806342966c681461025557806370a08231146102715761012c565b806305d2035b1461013157806306fdde031461014f578063095ea7b31461016d57806318160ddd1461019d57806323b872dd146101bb575b600080fd5b6101396103e9565b60405161014691906119af565b60405180910390f35b610157610400565b60405161016491906119ca565b60405180910390f35b6101876004803603810190610182919061164a565b610492565b60405161019491906119af565b60405180910390f35b6101a56104b0565b6040516101b29190611bcc565b60405180910390f35b6101d560048036038101906101d091906115fb565b6104ba565b6040516101e291906119af565b60405180910390f35b6101f36105b2565b6040516102009190611be7565b60405180910390f35b610223600480360381019061021e919061164a565b6105bb565b60405161023091906119af565b60405180910390f35b610253600480360381019061024e919061164a565b610667565b005b61026f600480360381019061026a91906116e9565b6106c5565b005b61028b60048036038101906102869190611596565b6106d9565b6040516102989190611bcc565b60405180910390f35b6102a9610721565b005b6102c560048036038101906102c0919061164a565b6107a9565b005b6102cf610824565b005b6102d961087e565b6040516102e69190611994565b60405180910390f35b6102f76108a8565b60405161030491906119ca565b60405180910390f35b6103276004803603810190610322919061164a565b61093a565b60405161033491906119af565b60405180910390f35b6103576004803603810190610352919061164a565b610a25565b60405161036491906119af565b60405180910390f35b610387600480360381019061038291906115bf565b610a43565b6040516103949190611bcc565b60405180910390f35b6103b760048036038101906103b29190611596565b610aca565b005b6103d360048036038101906103ce9190611686565b610bc2565b6040516103e091906119af565b60405180910390f35b6000600560009054906101000a900460ff16905090565b60606003805461040f90611d30565b80601f016020809104026020016040519081016040528092919081815260200182805461043b90611d30565b80156104885780601f1061045d57610100808354040283529160200191610488565b820191906000526020600020905b81548152906001019060200180831161046b57829003601f168201915b5050505050905090565b60006104a661049f610d89565b8484610d91565b6001905092915050565b6000600254905090565b60006104c7848484610f5c565b6000600160008673ffffffffffffffffffffffffffffffffffffffff1673ffffffffffffffffffffffffffffffffffffffff1681526020019081526020016000206000610512610d89565b73ffffffffffffffffffffffffffffffffffffffff1673ffffffffffffffffffffffffffffffffffffffff16815260200190815260200160002054905082811015610592576040517f08c379a000000000000000000000000000000000000000000000000000000000815260040161058990611aac565b60405180910390fd5b6105a68561059e610d89565b858403610d91565b60019150509392505050565b60006009905090565b600061065d6105c8610d89565b8484600160006105d6610d89565b73ffffffffffffffffffffffffffffffffffffffff1673ffffffffffffffffffffffffffffffffffffffff16815260200190815260200160002060008873ffffffffffffffffffffffffffffffffffffffff1673ffffffffffffffffffffffffffffffffffffffff168152602001908152602001600020546106589190611c1e565b610d91565b6001905092915050565b600560009054906101000a900460ff16156106b7576040517f08c379a00000000000000000000000000000000000000000000000000000000081526004016106ae90611b6c565b60405180910390fd5b6106c182826111dd565b5050565b6106d66106d0610d89565b82611267565b50565b60008060008373ffffffffffffffffffffffffffffffffffffffff1673ffffffffffffffffffffffffffffffffffffffff168152602001908152602001600020549050919050565b610729610d89565b73ffffffffffffffffffffffffffffffffffffffff1661074761087e565b73ffffffffffffffffffffffffffffffffffffffff161461079d576040517f08c379a000000000000000000000000000000000000000000000000000000000815260040161079490611acc565b60405180910390fd5b6107a7600061143e565b565b60006107bc836107b7610d89565b610a43565b905081811015610801576040517f08c379a00000000000000000000000000000000000000000000000000000000081526004016107f890611aec565b60405180910390fd5b6108158361080d610d89565b848403610d91565b61081f8383611267565b505050565b600560009054906101000a900460ff1615610874576040517f08c379a000000000000000000000000000000000000000000000000000000000815260040161086b90611b6c565b60405180910390fd5b61087c611504565b565b6000600560019054906101000a900473ffffffffffffffffffffffffffffffffffffffff16905090565b6060600480546108b790611d30565b80601f01602080910402602001604051908101604052809291908181526020018280546108e390611d30565b80156109305780601f1061090557610100808354040283529160200191610930565b820191906000526020600020905b81548152906001019060200180831161091357829003601f168201915b5050505050905090565b60008060016000610949610d89565b73ffffffffffffffffffffffffffffffffffffffff1673ffffffffffffffffffffffffffffffffffffffff16815260200190815260200160002060008573ffffffffffffffffffffffffffffffffffffffff1673ffffffffffffffffffffffffffffffffffffffff16815260200190815260200160002054905082811015610a06576040517f08c379a00000000000000000000000000000000000000000000000000000000081526004016109fd90611b8c565b60405180910390fd5b610a1a610a11610d89565b85858403610d91565b600191505092915050565b6000610a39610a32610d89565b8484610f5c565b6001905092915050565b6000600160008473ffffffffffffffffffffffffffffffffffffffff1673ffffffffffffffffffffffffffffffffffffffff16815260200190815260200160002060008373ffffffffffffffffffffffffffffffffffffffff1673ffffffffffffffffffffffffffffffffffffffff16815260200190815260200160002054905092915050565b610ad2610d89565b73ffffffffffffffffffffffffffffffffffffffff16610af061087e565b73ffffffffffffffffffffffffffffffffffffffff1614610b46576040517f08c379a0000000000000000000000000000000000000000000000000000000008152600401610b3d90611acc565b60405180910390fd5b600073ffffffffffffffffffffffffffffffffffffffff168173ffffffffffffffffffffffffffffffffffffffff161415610bb6576040517f08c379a0000000000000000000000000000000000000000000000000000000008152600401610bad90611a4c565b60405180910390fd5b610bbf8161143e565b50565b6000808360ff16118015610bd65750600082115b610c15576040517f08c379a0000000000000000000000000000000000000000000000000000000008152600401610c0c90611a2c565b60405180910390fd5b610c1f8585610a25565b9050949350505050565b600073ffffffffffffffffffffffffffffffffffffffff168273ffffffffffffffffffffffffffffffffffffffff161415610c99576040517f08c379a0000000000000000000000000000000000000000000000000000000008152600401610c9090611bac565b60405180910390fd5b610ca56000838361154d565b8060026000828254610cb79190611c1e565b92505081905550806000808473ffffffffffffffffffffffffffffffffffffffff1673ffffffffffffffffffffffffffffffffffffffff1681526020019081526020016000206000828254610d0c9190611c1e565b925050819055508173ffffffffffffffffffffffffffffffffffffffff16600073ffffffffffffffffffffffffffffffffffffffff167fddf252ad1be2c89b69c2b068fc378daa952ba7f163c4a11628f55a4df523b3ef83604051610d719190611bcc565b60405180910390a3610d8560008383611552565b5050565b600033905090565b600073ffffffffffffffffffffffffffffffffffffffff168373ffffffffffffffffffffffffffffffffffffffff161415610e01576040517f08c379a0000000000000000000000000000000000000000000000000000000008152600401610df890611b4c565b60405180910390fd5b600073ffffffffffffffffffffffffffffffffffffffff168273ffffffffffffffffffffffffffffffffffffffff161415610e71576040517f08c379a0000000000000000000000000000000000000000000000000000000008152600401610e6890611a6c565b60405180910390fd5b80600160008573ffffffffffffffffffffffffffffffffffffffff1673ffffffffffffffffffffffffffffffffffffffff16815260200190815260200160002060008473ffffffffffffffffffffffffffffffffffffffff1673ffffffffffffffffffffffffffffffffffffffff168152602001908152602001600020819055508173ffffffffffffffffffffffffffffffffffffffff168373ffffffffffffffffffffffffffffffffffffffff167f8c5be1e5ebec7d5bd14f71427d1e84f3dd0314c0f7b2291e5b200ac8c7c3b92583604051610f4f9190611bcc565b60405180910390a3505050565b600073ffffffffffffffffffffffffffffffffffffffff168373ffffffffffffffffffffffffffffffffffffffff161415610fcc576040517f08c379a0000000000000000000000000000000000000000000000000000000008152600401610fc390611b2c565b60405180910390fd5b600073ffffffffffffffffffffffffffffffffffffffff168273ffffffffffffffffffffffffffffffffffffffff16141561103c576040517f08c379a0000000000000000000000000000000000000000000000000000000008152600401611033906119ec565b60405180910390fd5b61104783838361154d565b60008060008573ffffffffffffffffffffffffffffffffffffffff1673ffffffffffffffffffffffffffffffffffffffff168152602001908152602001600020549050818110156110cd576040517f08c379a00000000000000000000000000000000000000000000000000000000081526004016110c490611a8c565b60405180910390fd5b8181036000808673ffffffffffffffffffffffffffffffffffffffff1673ffffffffffffffffffffffffffffffffffffffff16815260200190815260200160002081905550816000808573ffffffffffffffffffffffffffffffffffffffff1673ffffffffffffffffffffffffffffffffffffffff16815260200190815260200160002060008282546111609190611c1e565b925050819055508273ffffffffffffffffffffffffffffffffffffffff168473ffffffffffffffffffffffffffffffffffffffff167fddf252ad1be2c89b69c2b068fc378daa952ba7f163c4a11628f55a4df523b3ef846040516111c49190611bcc565b60405180910390a36111d7848484611552565b50505050565b6111e5610d89565b73ffffffffffffffffffffffffffffffffffffffff1661120361087e565b73ffffffffffffffffffffffffffffffffffffffff1614611259576040517f08c379a000000000000000000000000000000000000000000000000000000000815260040161125090611acc565b60405180910390fd5b6112638282610c29565b5050565b600073ffffffffffffffffffffffffffffffffffffffff168273ffffffffffffffffffffffffffffffffffffffff1614156112d7576040517f08c379a00000000000000000000000000000000000000000000000000000000081526004016112ce90611b0c565b60405180910390fd5b6112e38260008361154d565b60008060008473ffffffffffffffffffffffffffffffffffffffff1673ffffffffffffffffffffffffffffffffffffffff16815260200190815260200160002054905081811015611369576040517f08c379a000000000000000000000000000000000000000000000000000000000815260040161136090611a0c565b60405180910390fd5b8181036000808573ffffffffffffffffffffffffffffffffffffffff1673ffffffffffffffffffffffffffffffffffffffff1681526020019081526020016000208190555081600260008282546113c09190611c74565b92505081905550600073ffffffffffffffffffffffffffffffffffffffff168373ffffffffffffffffffffffffffffffffffffffff167fddf252ad1be2c89b69c2b068fc378daa952ba7f163c4a11628f55a4df523b3ef846040516114259190611bcc565b60405180910390a361143983600084611552565b505050565b6000600560019054906101000a900473ffffffffffffffffffffffffffffffffffffffff16905081600560016101000a81548173ffffffffffffffffffffffffffffffffffffffff021916908373ffffffffffffffffffffffffffffffffffffffff1602179055508173ffffffffffffffffffffffffffffffffffffffff168173ffffffffffffffffffffffffffffffffffffffff167f8be0079c531659141344cd1fd0a4f28419497f9722a3daafe3b4186f6b6457e060405160405180910390a35050565b6001600560006101000a81548160ff0219169083151502179055507fae5184fba832cb2b1f702aca6117b8d265eaf03ad33eb133f19dde0f5920fa0860405160405180910390a1565b505050565b505050565b60008135905061156681612200565b92915050565b60008135905061157b81612217565b92915050565b6000813590506115908161222e565b92915050565b6000602082840312156115a857600080fd5b60006115b684828501611557565b91505092915050565b600080604083850312156115d257600080fd5b60006115e085828601611557565b92505060206115f185828601611557565b9150509250929050565b60008060006060848603121561161057600080fd5b600061161e86828701611557565b935050602061162f86828701611557565b92505060406116408682870161156c565b9150509250925092565b6000806040838503121561165d57600080fd5b600061166b85828601611557565b925050602061167c8582860161156c565b9150509250929050565b6000806000806080858703121561169c57600080fd5b60006116aa87828801611557565b94505060206116bb8782880161156c565b93505060406116cc87828801611581565b92505060606116dd8782880161156c565b91505092959194509250565b6000602082840312156116fb57600080fd5b60006117098482850161156c565b91505092915050565b61171b81611ca8565b82525050565b61172a81611cba565b82525050565b600061173b82611c02565b6117458185611c0d565b9350611755818560208601611cfd565b61175e81611dc0565b840191505092915050565b6000611776602383611c0d565b915061178182611dd1565b604082019050919050565b6000611799602283611c0d565b91506117a482611e20565b604082019050919050565b60006117bc601283611c0d565b91506117c782611e6f565b602082019050919050565b60006117df602683611c0d565b91506117ea82611e98565b604082019050919050565b6000611802602283611c0d565b915061180d82611ee7565b604082019050919050565b6000611825602683611c0d565b915061183082611f36565b604082019050919050565b6000611848602883611c0d565b915061185382611f85565b604082019050919050565b600061186b602083611c0d565b915061187682611fd4565b602082019050919050565b600061188e602483611c0d565b915061189982611ffd565b604082019050919050565b60006118b1602183611c0d565b91506118bc8261204c565b604082019050919050565b60006118d4602583611c0d565b91506118df8261209b565b604082019050919050565b60006118f7602483611c0d565b9150611902826120ea565b604082019050919050565b600061191a602283611c0d565b915061192582612139565b604082019050919050565b600061193d602583611c0d565b915061194882612188565b604082019050919050565b6000611960601f83611c0d565b915061196b826121d7565b602082019050919050565b61197f81611ce6565b82525050565b61198e81611cf0565b82525050565b60006020820190506119a96000830184611712565b92915050565b60006020820190506119c46000830184611721565b92915050565b600060208201905081810360008301526119e48184611730565b905092915050565b60006020820190508181036000830152611a0581611769565b9050919050565b60006020820190508181036000830152611a258161178c565b9050919050565b60006020820190508181036000830152611a45816117af565b9050919050565b60006020820190508181036000830152611a65816117d2565b9050919050565b60006020820190508181036000830152611a85816117f5565b9050919050565b60006020820190508181036000830152611aa581611818565b9050919050565b60006020820190508181036000830152611ac58161183b565b9050919050565b60006020820190508181036000830152611ae58161185e565b9050919050565b60006020820190508181036000830152611b0581611881565b9050919050565b60006020820190508181036000830152611b25816118a4565b9050919050565b60006020820190508181036000830152611b45816118c7565b9050919050565b60006020820190508181036000830152611b65816118ea565b9050919050565b60006020820190508181036000830152611b858161190d565b9050919050565b60006020820190508181036000830152611ba581611930565b9050919050565b60006020820190508181036000830152611bc581611953565b9050919050565b6000602082019050611be16000830184611976565b92915050565b6000602082019050611bfc6000830184611985565b92915050565b600081519050919050565b600082825260208201905092915050565b6000611c2982611ce6565b9150611c3483611ce6565b9250827fffffffffffffffffffffffffffffffffffffffffffffffffffffffffffffffff03821115611c6957611c68611d62565b5b828201905092915050565b6000611c7f82611ce6565b9150611c8a83611ce6565b925082821015611c9d57611c9c611d62565b5b828203905092915050565b6000611cb382611cc6565b9050919050565b60008115159050919050565b600073ffffffffffffffffffffffffffffffffffffffff82169050919050565b6000819050919050565b600060ff82169050919050565b60005b83811015611d1b578082015181840152602081019050611d00565b83811115611d2a576000848401525b50505050565b60006002820490506001821680611d4857607f821691505b60208210811415611d5c57611d5b611d91565b5b50919050565b7f4e487b7100000000000000000000000000000000000000000000000000000000600052601160045260246000fd5b7f4e487b7100000000000000000000000000000000000000000000000000000000600052602260045260246000fd5b6000601f19601f8301169050919050565b7f45524332303a207472616e7366657220746f20746865207a65726f206164647260008201527f6573730000000000000000000000000000000000000000000000000000000000602082015250565b7f45524332303a206275726e20616d6f756e7420657863656564732062616c616e60008201527f6365000000000000000000000000000000000000000000000000000000000000602082015250565b7f7461726765742069732072657175697265640000000000000000000000000000600082015250565b7f4f776e61626c653a206e6577206f776e657220697320746865207a65726f206160008201527f6464726573730000000000000000000000000000000000000000000000000000602082015250565b7f45524332303a20617070726f766520746f20746865207a65726f20616464726560008201527f7373000000000000000000000000000000000000000000000000000000000000602082015250565b7f45524332303a207472616e7366657220616d6f756e742065786365656473206260008201527f616c616e63650000000000000000000000000000000000000000000000000000602082015250565b7f45524332303a207472616e7366657220616d6f756e742065786365656473206160008201527f6c6c6f77616e6365000000000000000000000000000000000000000000000000602082015250565b7f4f776e61626c653a2063616c6c6572206973206e6f7420746865206f776e6572600082015250565b7f45524332303a206275726e20616d6f756e74206578636565647320616c6c6f7760008201527f616e636500000000000000000000000000000000000000000000000000000000602082015250565b7f45524332303a206275726e2066726f6d20746865207a65726f2061646472657360008201527f7300000000000000000000000000000000000000000000000000000000000000602082015250565b7f45524332303a207472616e736665722066726f6d20746865207a65726f20616460008201527f6472657373000000000000000000000000000000000000000000000000000000602082015250565b7f45524332303a20617070726f76652066726f6d20746865207a65726f2061646460008201527f7265737300000000000000000000000000000000000000000000000000000000602082015250565b7f45524332304d696e7461626c653a206d696e74696e672069732066696e69736860008201527f6564000000000000000000000000000000000000000000000000000000000000602082015250565b7f45524332303a2064656372656173656420616c6c6f77616e63652062656c6f7760008201527f207a65726f000000000000000000000000000000000000000000000000000000602082015250565b7f45524332303a206d696e7420746f20746865207a65726f206164647265737300600082015250565b61220981611ca8565b811461221457600080fd5b50565b61222081611ce6565b811461222b57600080fd5b50565b61223781611cf0565b811461224257600080fd5b5056fea2646970667358221220d4ec4a7d05bb9208f00c40f07f4dbae397ffac060e008d41e258a52c8b23b10d64736f6c63430008040033",
  "linkReferences": {},
  "deployedLinkReferences": {}
}